:100000000C9462000C948A000C948A000C948A0070
:100010000C948A000C948A000C948A000C948A0038
:100020000C948A000C948A000C948A000C94540B53
:100030000C948A000C948A000C948A000C948A0018
:100040000C94AB080C948A000C948A000C948A00DF
:100050000C948A000C948A000C948A000C948A00F8
:100060000C948A000C948A000000000024002700F1
:100070002A0000000000250028002B0000000000DE
:1000800023002600290004040404040404040202DA
:100090000202020203030303030301020408102007
:1000A0004080010204081020010204081020000012
:1000B0000007000201000003040600000000000029
:1000C00000000F0711241FBECFEFD8E0DEBFCDBF69
:1000D00012E0A0E0B1E0E4E4FBE102C005900D9283
:1000E000AA31B107D9F712E0AAE1B2E001C01D922E
:1000F000AA37B107E1F710E0C4ECD0E004C02297C2
:10010000FE010E949C0DC23CD107C9F70E94FD0967
:100110000C94A00D0C940000EF92FF920F93DF93CC
:10012000CF93CDB7DEB760970FB6F894DEBF0FBEA2
:10013000CDBFA82F002309F461C07E010894E11C03
:10014000F11C88E0F70111928A95E9F729833A8337
:100150004B835C836D837E83AF83988780E2801BB3
:10016000E82FFF27E7FDF09549815A816B817C815B
:10017000181684F019861A861B861C8688279927EC
:100180008E1B9F0B04C0440F551F661F771F8A9557
:10019000D2F728C0202F332727FD3095DB01CA0175
:1001A000022E04C0880F991FAA1FBB1F0A94D2F702
:1001B00089879A87AB87BC8704C0769567955795E2
:1001C0004795EA95D2F78D819E81AF81B88504C0AD
:1001D000880F991FAA1FBB1F2A95D2F7482B592BAE
:1001E0006A2B7B2B4D875E876F87788B29853A85B5
:1001F0004B855C856D857E85AF8598898A2F609655
:100200000FB6F894DEBF0FBECDBFCF91DF910F9137
:10021000FF90EF900895A0E0B0E0E1E1F1E00C94F0
:10022000630DDC012B01FA019C91923008F439C175
:10023000EB018881823008F433C1943069F4843052
:1002400009F02FC111969C9111978981981709F493
:1002500028C1ACE0B1E025C1843009F421C182306D
:10026000A9F4923009F01DC19A01AD0188E0EA01BC
:100270000990AE01E90109929E018150C1F7E201A6
:10028000898111969C918923818308C1923009F458
:1002900007C112962D903C901397EB018A819B81A8
:1002A0001496AD90BD90CD90DC901797EC80FD80BA
:1002B0000E811F819101281B390BB90137FF04C042
:1002C00066277727621B730B603271050CF061C0E3
:1002D000121613066CF537014801062E04C09694D9
:1002E0008794779467940A94D2F721E030E040E055
:1002F00050E004C0220F331F441F551F6A95D2F7E8
:1003000021503040404050402E213F214023512376
:10031000211531054105510521F021E030E040E093
:1003200050E079018A01E628F728082919293CC0FC
:10033000232BD1F1260E371E35014601062E04C0AF
:1003400096948794779467940A94D2F721E030E0EA
:1003500040E050E004C0220F331F441F551F6A9530
:10036000D2F721503040404050402A213B214C21BF
:100370005D21211531054105510521F021E030E0D5
:1003800040E050E059016A01A628B728C828D928BA
:100390000BC0821593052CF01C01AA24BB24650117
:1003A00003C0EE24FF24870111969C91D20111967F
:1003B0008C91981709F445C0992339F0A801970149
:1003C0002A193B094C095D0906C0A60195012E19A1
:1003D0003F09400B510B57FD08C011823382228226
:1003E00024833583468357831DC081E08183338214
:1003F000228288279927DC01821B930BA40BB50B63
:1004000084839583A683B7830DC0220F331F441FB7
:10041000551F2483358346835783828193810197B7
:10042000938382832481358146815781DA01C90112
:100430000197A109B1098F5F9F4FAF4FBF4328F3C9
:100440000BC0918333822282EA0CFB1C0C1D1D1D04
:10045000E482F5820683178383E0808324813581DB
:100460004681578157FF1AC0C901AA2797FDA09559
:10047000BA2F81709070A070B070569547953795DF
:100480002795822B932BA42BB52B84839583A6834E
:10049000B78382819381019693838283DF0101C0B8
:1004A000D201CD01CDB7DEB7E2E10C947F0DA0E221
:1004B000B0E0EDE5F2E00C946F0D69837A838B83F5
:1004C0009C832D833E834F835887E9E0EE2EF12CE9
:1004D000EC0EFD1ECE010196B7010E9485058E012E
:1004E0000F5E1F4FCE010596B8010E9485058A89CF
:1004F00091E089278A8BC701B801AE01475E5F4F43
:100500000E940B010E94B004A096E6E00C948B0DB3
:10051000A0E2B0E0EEE8F2E00C946F0D69837A831C
:100520008B839C832D833E834F835887F9E0EF2E86
:10053000F12CEC0EFD1ECE010196B7010E9485053F
:100540008E010F5E1F4FCE010596B8010E948505F2
:10055000C701B801AE01475E5F4F0E940B010E94C8
:10056000B004A096E6E00C948B0DA0E2B0E0EBEBBB
:10057000F2E00C94630D69837A838B839C832D83D3
:100580003E834F835887CE010196BE01675F7F4F40
:100590000E948505CE010596BE016F5E7F4F0E94C9
:1005A00085059985923088F089898230C8F0943029
:1005B00019F4823051F404C0843029F4923081F46B
:1005C0008CE091E0C6C0923049F420E09A858A8997
:1005D000981321E02A87CE010996BBC0823049F4E6
:1005E00020E09A858A89981321E02A8BCE014196D2
:1005F000B0C02D843E844F8458886D887E888F8853
:10060000988CEE24FF248701AA24BB24650140E0D6
:1006100050E060E070E0E0E0F0E0C10181709070D7
:10062000892BE9F0E60CF71C081D191D9A01AB0196
:100630002A0D3B1D4C1D5D1D80E090E0A0E0B0E068
:10064000E614F7040805190520F481E090E0A0E025
:10065000B0E0BA01A901480F591F6A1F7B1FAA0CFD
:10066000BB1CCC1CDD1C97FE08C081E090E0A0E024
:10067000B0E0A82AB92ACA2ADB2A3196E032F1056D
:1006800049F0660C771C881C991C56944794379443
:100690002794C3CFFA85EA892B893C898B859C8571
:1006A000280F391F2E5F3F4F17C0CA01817090700D
:1006B000892B61F016950795F794E79480E090E018
:1006C000A0E0B0E8E82AF92A0A2B1B2B769567955B
:1006D000579547952F5F3F4F77FDE7CF0CC0440FED
:1006E000551F661F771F17FD4160EE0CFF1C001F92
:1006F000111F21503040403090E0590790E06907C9
:1007000090E4790760F32B8F3C8FDB01CA018F7770
:100710009070A070B07080349105A105B10561F4AE
:1007200047FD0AC0E114F1040105110529F0405C00
:100730005F4F6F4F7F4F40781A8EFE1711F081E0A8
:100740008A8F4D8F5E8F6F8F78A383E0898FCE0164
:1007500049960E94B004A096E2E10C947F0DA8E0B7
:10076000B0E0E5EBF3E00C946C0D9B01AC0183E091
:100770008983DA01C9018827B7FD83959927AA27BC
:10078000BB27B82E211531054105510519F482E02A
:1007900089833AC08823A9F0203080E0380780E0C0
:1007A000480780E8580729F460E070E080E09FEC9B
:1007B00030C0EE24FF248701E21AF30A040B150B64
:1007C00002C079018A018EE1C82ED12CDC82CB8255
:1007D000ED82FE820F831887C801B7010E94610471
:1007E00001971816190684F4082E04C0EE0CFF1C9D
:1007F000001F111F0A94D2F7ED82FE820F83188723
:10080000C81AD90ADC82CB82BA82CE0101960E9434
:10081000B0042896E9E00C94880DACE0B0E0E3E188
:10082000F4E00C94730D69837A838B839C83CE01EF
:100830000196BE016B5F7F4F0E9485058D818230DE
:1008400061F1823050F1843021F48E81882351F19E
:100850002EC02F81388537FD20C06E812F313105A4
:100860001CF06623F9F023C08EE190E0821B930B0D
:1008700029853A854B855C8504C056954795379503
:1008800027958A95D2F76623B1F05095409530951B
:1008900021953F4F4F4F5F4F0EC020E030E040E0CA
:1008A00050E009C02FEF3FEF4FEF5FE704C020E0BB
:1008B00030E040E050E8B901CA012C96E2E00C9427
:1008C0008F0DEF92FF920F931F937B018C0180E0BD
:1008D000E81680E0F80681E0080780E0180788F451
:1008E0008FEFE816F1040105110531F028F088E0DA
:1008F00090E0A0E0B0E017C080E090E0A0E0B0E0C1
:1009000012C080E0E81680E0F80680E0080781E089
:10091000180728F088E190E0A0E0B0E004C080E192
:1009200090E0A0E0B0E020E230E040E050E0281BA2
:10093000390B4A0B5B0B04C016950795F794E794A7
:100940008A95D2F7F701EC5EFE4F8081281B3109B2
:1009500041095109C9011F910F91FF90EF9008952E
:10096000DF92EF92FF920F931F93FC01E480F580DA
:1009700006811781D1808081823048F480E090E048
:10098000A0E1B0E0E82AF92A0A2B1B2BA5C084308D
:1009900009F49FC0823021F4EE24FF24870105C0B2
:1009A000E114F1040105110519F4E0E0F0E096C04E
:1009B000628173819FEF623879070CF05BC022E897
:1009C0003FEF261B370B2A3131052CF020E030E0B9
:1009D00040E050E02AC0B801A701022E04C076957D
:1009E0006795579547950A94D2F781E090E0A0E08B
:1009F000B0E004C0880F991FAA1FBB1F2A95D2F729
:100A00000197A109B1098E219F21A023B12300974D
:100A1000A105B10521F081E090E0A0E0B0E09A01ED
:100A2000AB01282B392B4A2B5B2BDA01C9018F77BD
:100A30009070A070B07080349105A105B10539F4B3
:100A400027FF09C0205C3F4F4F4F5F4F04C0215C20
:100A50003F4F4F4F5F4FE0E0F0E02030A0E03A071B
:100A6000A0E04A07A0E45A0710F0E1E0F0E07901C5
:100A70008A0127C06038710564F5FB01E158FF4F1A
:100A8000D801C7018F779070A070B0708034910545
:100A9000A105B10539F4E7FE0DC080E490E0A0E0C7
:100AA000B0E004C08FE390E0A0E0B0E0E80EF91EF3
:100AB0000A1F1B1F17FF05C016950795F794E794AB
:100AC000319687E016950795F794E7948A95D1F7C4
:100AD00005C0EE24FF248701EFEFF0E06E2F67954D
:100AE00066276795902F9F77D794DD24D7948E2F14
:100AF0008695492F462B582F5D29B701CA011F91B2
:100B00000F91FF90EF90DF900895FC01DB01408191
:100B100051812281622F6F7770E0221F2227221FCE
:100B20009381892F880F822B282F30E0991F9927D6
:100B3000991F11969C93119721153105A9F541151F
:100B400051056105710511F482E037C082E89FEF1D
:100B500013969C938E9312979A01AB0167E0220F34
:100B6000331F441F551F6A95D1F783E08C930DC046
:100B7000220F331F441F551F12968D919C9113977E
:100B8000019713969C938E931297203080E038073C
:100B900080E0480780E4580758F314962D933D935E
:100BA0004D935C93179708952F3F310579F44115C4
:100BB00051056105710519F484E08C93089564FF73
:100BC00003C081E08C9312C01C9210C02F5730409C
:100BD00013963C932E93129783E08C9387E0440FF7
:100BE000551F661F771F8A95D1F7706414964D9331
:100BF0005D936D937C9317970895CF93DF93BC011A
:100C00008230910510F462E070E0A0917802B0911A
:100C10007902ED01E0E0F0E040E050E021C08881A1
:100C200099818617970769F48A819B81309719F01B
:100C30009383828304C09093790280937802FE01AB
:100C400034C06817790738F44115510519F0841735
:100C5000950708F4AC01FE018A819B819C01E901A2
:100C60002097E9F641155105A9F1CA01861B970B9A
:100C7000049708F4BA01E0E0F0E02AC08D919C915D
:100C8000119784179507F9F46417750781F4129684
:100C90008D919C911397309719F09383828304C0B0
:100CA0009093790280937802FD0132964CC0CA017C
:100CB000861B970BFD01E80FF91F61937193029753
:100CC0008D939C9340C0FD01828193819C01D90149
:100CD0001097A1F68091760290917702892B41F4CA
:100CE000809116029091170290937702809376027A
:100CF00040911802509119024115510541F44DB728
:100D00005EB78091140290911502481B590B2091F7
:100D1000760230917702CA01821B930B86179707E0
:100D200080F0AB014E5F5F4F8417950750F0420F84
:100D3000531F5093770240937602F90161937193A8
:100D400002C0E0E0F0E0CF01DF91CF910895CF93B2
:100D5000DF93009709F450C0EC0122971B821A829E
:100D6000A0917802B0917902109709F140E050E02B
:100D7000AC17BD0708F1BB83AA83FE012191319115
:100D8000E20FF31FAE17BF0779F48D919C91119775
:100D9000280F391F2E5F3F4F3983288312968D917C
:100DA0009C9113979B838A834115510571F4D093CD
:100DB0007902C093780220C012968D919C9113976E
:100DC000AD01009711F0DC01D3CFFA01D383C283C8
:100DD00021913191E20FF31FCE17DF0769F488816B
:100DE0009981280F391F2E5F3F4FFA0131832083ED
:100DF0008A819B8193838283DF91CF910895FB0148
:100E0000DC018D91019080190110D9F3990B08959F
:100E1000FB01DC0101900D920020E1F708958AE1C9
:100E200092E00E94040A83E090E090931E02809377
:100E30001D0280E590E090932902809328028AE5C4
:100E400090E090932B0280932A0280E392E00E942C
:100E5000040A84E090E0909334028093330284EBA0
:100E600090E090933F0280933E0286EA9FEF90933A
:100E70004102809340020895CF92DF92EF92FF9259
:100E80000F931F93DF93CF9300D000D000D0CDB746
:100E9000DEB76C018B017E010894E11CF11CC701D7
:100EA00060E071E00E94D509C801B7010E94A8095D
:100EB000182F89819A810E94A706112329F080E0CA
:100EC00090E0A0E8BFE304C080E090E0A0E0B0E0E4
:100ED000F60187839087A187B287F60160897189BF
:100EE000882777FD8095982F0E94AF037B018C01A6
:100EF000F60166857785882777FD8095982F0E9473
:100F0000AF03F60127813085418552850E94B502E5
:100F10009B01AC01C801B7010E9488020E940D0428
:100F20009B01AC011E821D821C821B82C601B9017D
:100F30000E94660A26960FB6F894DEBF0FBECDBF9C
:100F4000CF91DF911F910F91FF90EF90DF90CF90A5
:100F500008950F931F93DF93CF93CDB7DEB76897B4
:100F60000FB6F894DEBF0FBECDBF109226021092CE
:100F7000250280E090E0A0E0B0E080932102909311
:100F80002202A0932302B0932402109227028091A0
:100F90004602882309F06CC08E010F5F1F4FC80105
:100FA00065E071E00E94D5098AE192E0B8010E94F3
:100FB0003C0789819A810E94A7061C821B821E829F
:100FC0001D8268EE73E080E090E00E94F3088E01DD
:100FD000095F1F4FC80160E071E00E94D5098AE1F6
:100FE00092E0B8010E943C078F8198850E94A70675
:100FF0001A8619861C861B8668EE73E080E090E0F6
:101000000E94F3088E01035F1F4FC80165E071E085
:101010000E94D5098AE192E0B8010E943C078D85C3
:101020009E850E94A706188A1F861A8A198A68EE6A
:1010300073E080E090E00E94F3088E010D5E1F4F88
:10104000C80160E071E00E94D5098AE192E0B80130
:101050000E943C078B899C890E94A7061E8A1D8AD4
:10106000188E1F8A68EE73E080E090E00E94F3081B
:1010700081E08093460268960FB6F894DEBF0FBEFB
:10108000CDBFCF91DF911F910F910895AF92BF9285
:10109000CF92DF92EF92FF920F931F9301E212E043
:1010A0000F2EF0E0CF2EF0E0DF2EF0E0EF2EF0E09C
:1010B000FF2EF02DC0922102D0922202E092230254
:1010C000F09224021092270289EFA82E8FEFB82EFB
:1010D000A00EB11E04501040F80160817181C5015D
:1010E0000E944D0BC0922102D0922202E092230274
:1010F000F092240210922702F80160817181C501EB
:101100000E944D0BC0922102D0922202E092230253
:10111000F092240210922702F80160817181C501CA
:101120000E944D0BC0922102D0922202E092230233
:10113000F092240210922702F80160817181C501AA
:101140000E944D0B1F910F91FF90EF90DF90CF9079
:10115000BF90AF9008951F920F920FB60F92112477
:101160002F933F938F939F93AF93BF9380914B02A5
:1011700090914C02A0914D02B0914E0230914F02DD
:101180000196A11DB11D232F2D5F2D3720F02D5766
:101190000196A11DB11D20934F0280934B029093A5
:1011A0004C02A0934D02B0934E0280914702909161
:1011B0004802A0914902B0914A020196A11DB11DB9
:1011C0008093470290934802A0934902B0934A0249
:1011D000BF91AF919F918F913F912F910F900FBE33
:1011E0000F901F9018956F927F928F929F92AF925F
:1011F000BF92CF92DF92EF92FF920F931F93CF9304
:10120000DF933B014C013FB7F894809147029091E6
:101210004802A0914902B0914A0226B5A89B05C098
:101220002F3F19F00196A11DB11D3FBFAA24B82E72
:10123000C92EDA2EA20EB11CC11CD11C9501A6012B
:1012400060E070E080E090E002E00E948C00E90144
:1012500031C03FB7F8948091470290914802A09125
:101260004902B0914A0226B5A89B05C02F3F19F04C
:101270000196A11DB11D3FBFAA24B82EC92EDA2E9A
:10128000A20EB11CC11CD11C9501A60160E070E04A
:1012900080E090E002E00E948C00C9018C1B9D0B55
:1012A000885E9340B0F20894610871088108910843
:1012B000C851DC4F611471048104910451F6DF912F
:1012C000CF911F910F91FF90EF90DF90CF90BF9043
:1012D000AF909F908F907F906F900895789484B591
:1012E000826084BD84B5816084BD85B5826085BD22
:1012F00085B5816085BDEEE6F0E080818160808308
:10130000E1E8F0E080818260808380818160808379
:10131000E0E8F0E0808181608083E1EBF0E08081B3
:1013200084608083E0EBF0E0808181608083EAE785
:10133000F0E080818460808380818260808380810E
:10134000816080838081806880831092C1000895CD
:10135000DC01FB0114962D913C91159784819581B8
:101360002817390711F080E00895608171818D910F
:101370009C910E94FF069C0180E0232B09F481E0F0
:101380000895CF93DF93EC01CB017B836A830196B1
:101390000E94FD0599838883009721F41B821A829D
:1013A0001D821C82DF91CF9108950F931F93CF93DD
:1013B000DF938C01EB016115710511F4CBE0D1E0F5
:1013C000FE0101900020E9F73197EC1BFD0BD801DD
:1013D0001596FC93EE931497C801BF010E94C109B2
:1013E000F80180819181009719F0BE010E940807E1
:1013F000DF91CF911F910F9108950E946E090E9475
:1014000046080E94A907FDCFFC01809150028C3054
:1014100090F480838F5F80935002815090E0FC01B4
:10142000EE0FFF1FE80FF91FEF5AFD4F88EB9BE00F
:101430009283818308958FEF808308950F931F9384
:10144000FC0110811C3008F03EC08181992787FD86
:10145000909528E830E0281B390B220F331F220F0C
:10146000331F6217730784F08281992787FD909557
:1014700028E532E0281B390B220F331F220F331FC0
:10148000621773070CF49B01C9010297FC01FF0F5F
:10149000EE0BFE2F9C014E2F5E2F6E2F7E2F8E2F78
:1014A0009E2F01E00E948C004FB7F894812F90E0AE
:1014B000FC01EE0FFF1FE80FF91FEF5AFD4FC901A6
:1014C000218392834FBF1F910F910895AF92BF92D6
:1014D000CF92DF92EF92FF920F931F93CF93DF9300
:1014E000EC019B0182E0603278070CF048C077FF86
:1014F00003C020E030E005C0653B710514F024EB2B
:1015000030E000D000D0B901882777FD8095982F72
:101510002981332727FD3095E8E8AE2EB12CA21A99
:10152000B30AAA0CBB1CAA0CBB1CCC24B7FCC094ED
:10153000DC2CEA81FF27E7FDF09528E532E02E1B41
:101540003F0B220F331F220F331F442737FD4095D7
:10155000542FEDB7FEB7218332834383548320E0B9
:1015600030E040E050E004EBE02EF12C012D112D95
:101570000E948B0C9B010F900F900F900F90CE014B
:10158000B9010E941E0ADF91CF911F910F91FF9028
:10159000EF90DF90CF90BF90AF900895CF92DF9201
:1015A000EF92FF921F93CF93DF93EC01162F7A01F6
:1015B000690188818C3008F064C0862F61E00E9448
:1015C000110C888190E0FC01EE0FFF1FE80FF91F5E
:1015D000EF5AFD4F1F738081807C812B808380E2D6
:1015E00092E08E199F0964E070E00E94FF0C69830D
:1015F00080E699E08C199D0964E070E00E94FF0C80
:101600006A83A8818A2F6CE00E94F30C682F70E037
:10161000AB01440F551F460F571F440F551F440F72
:10162000551F20E030E0C901840F951FFC01EE0F2B
:10163000FF1FE80FF91FEF5AFD4F808186FD15C08F
:101640002F5F3F4F2C30310571F724C0109280007E
:1016500082E0809381001092850010928400B19AFC
:1016600080916F00826080936F008A2F90E0FC0170
:10167000EE0FFF1FE80FF91FEF5AFD4F80818064C6
:1016800080838881DF91CF911F91FF90EF90DF9051
:10169000CF900895672BD1F2E8CF40E252E020E6E8
:1016A00039E00E94CE0A08951F920F920FB60F9252
:1016B00011242F933F934F935F936F937F938F9357
:1016C0009F93AF93BF93EF93FF938091750287FF32
:1016D00005C010928500109284002BC020917502E5
:1016E000332727FD30958091500290E02817390765
:1016F00004F580917502992787FD9095FC01EE0F06
:10170000FF1FE80FF91FEF5AFD4F808186FF11C0C0
:1017100080917502992787FD9095FC01EE0FFF1FC0
:10172000E80FF91FEF5AFD4F80818F7360E00E9430
:10173000370C809175028F5F80937502209175023E
:10174000332727FD30958091500290E02817390704
:101750000CF04EC0809175028C300CF049C0209185
:1017600084003091850080917502992787FD9095BE
:10177000FC01EE0FFF1FE80FF91FEF5AFD4F8181AB
:101780009281280F391F309389002093880080911F
:101790007502992787FD9095FC01EE0FFF1FE80F5A
:1017A000F91FEF5AFD4F808186FF2AC08091750294
:1017B000992787FD9095FC01EE0FFF1FE80FF91F99
:1017C000EF5AFD4F80818F7361E00E94370C18C083
:1017D00080E49CE905C08091840090918500049686
:1017E00090938900809388008FEF8093750208C0E2
:1017F000809184009091850084549C4948F3EBCFFC
:10180000FF91EF91BF91AF919F918F917F916F91D8
:101810005F914F913F912F910F900FBE0F901F90AE
:101820001895482F50E0CA0186569F4FFC0124911D
:101830004A575F4FFA0184918823C1F0E82FF0E006
:10184000EE0FFF1FE859FF4FA591B491662341F4B5
:101850009FB7F8948C91209582238C939FBF089515
:101860009FB7F8948C91822B8C939FBF0895482F3B
:1018700050E0CA0182559F4FFC012491CA0186564F
:101880009F4FFC0134914A575F4FFA01949199237D
:1018900009F440C0222331F1233021F480918000EB
:1018A0008F7705C0243031F4809180008F7D809344
:1018B000800018C0213019F484B58F7704C022301D
:1018C00021F484B58F7D84BD0DC0263021F4809134
:1018D000B0008F7705C0273029F48091B0008F7D4C
:1018E0008093B000E92FF0E0EE0FFF1FEE58FF4F9E
:1018F000A591B491662341F49FB7F8948C913095EB
:1019000083238C939FBF08959FB7F8948C91832B6A
:101910008C939FBF08952F923F924F925F926F9248
:101920007F928F929F92AF92BF92CF92DF92EF926F
:10193000FF920F931F93DF93CF93CDB7DEB73B0199
:101940004C0119012A016D897E898F89988D6A1948
:101950007B098C099D09621A730A840A950AA401FD
:1019600093010E94D40CE218F30804091509A80198
:1019700097010E94120D2A0D3B1D4C1D5D1DB901E2
:10198000CA01CF91DF911F910F91FF90EF90DF90EF
:10199000CF90BF90AF909F908F907F906F905F900F
:1019A0004F903F902F900895629FD001739FF00158
:1019B000829FE00DF11D649FE00DF11D929FF00DDF
:1019C000839FF00D749FF00D659FF00D9927729F16
:1019D000B00DE11DF91F639FB00DE11DF91FBD01A1
:1019E000CF0111240895991B79E004C0991F96171F
:1019F00008F0961B881F7A95C9F78095089597FB84
:101A0000092E07260AD077FD04D027D006D0002063
:101A10001AF4709561957F4F0895F6F7909581952A
:101A20009F4F089597FB092E05260ED057FD04D031
:101A300028D00AD0001C38F4509540953095219557
:101A40003F4F4F4F5F4F0895F6F7909580957095F3
:101A500061957F4F8F4F9F4F0895AA1BBB1B51E18C
:101A600007C0AA1FBB1FA617B70710F0A61BB70B0E
:101A7000881F991F5A95A9F780959095BC01CD01B3
:101A80000895A1E21A2EAA1BBB1BFD010DC0AA1FBF
:101A9000BB1FEE1FFF1FA217B307E407F50720F0D7
:101AA000A21BB30BE40BF50B661F771F881F991F52
:101AB0001A9469F760957095809590959B01AC019B
:101AC000BD01CF0108952F923F924F925F926F9286
:101AD0007F928F929F92AF92BF92CF92DF92EF92BE
:101AE000FF920F931F93CF93DF93CDB7DEB7CA1B3F
:101AF000DB0B0FB6F894DEBF0FBECDBF09942A886A
:101B0000398848885F846E847D848C849B84AA8411
:101B1000B984C884DF80EE80FD800C811B81AA819E
:101B2000B981CE0FD11D0FB6F894DEBF0FBECDBF69
:101B3000ED010895EE0FFF1F0590F491E02D09943B
:041B4000F894FFCF47
:101B44004C454654005249474854000000000000E8
:101B54000000000000010202030303030404040460
:101B64000404040405050505050505050505050525
:101B74000505050506060606060606060606060605
:101B840006060606060606060606060606060606F1
:101B940006060606070707070707070707070707D5
:101BA40007070707070707070707070707070707C1
:101BB40007070707070707070707070707070707B1
:101BC40007070707070707070707070707070707A1
:101BD4000707070708080808080808080808080885
:101BE4000808080808080808080808080808080871
:101BF4000808080808080808080808080808080861
:101C04000808080808080808080808080808080850
:101C14000808080808080808080808080808080840
:101C24000808080808080808080808080808080830
:101C34000808080808080808080808080808080820
:101C44000808080808080808080808080808080810
:0A1C54000808080820007A020000CA
:00000001FF
