:100000000C9464000C948C000C948C000C948C0068
:100010000C948C000C948C000C948C000C948C0030
:100020000C948C000C948C000C948C000C948C0020
:100030000C948C000C948C000C948C000C948C0010
:100040000C9407030C948C000C948C000C948C0082
:100050000C948C000C948C000C948C000C948C00F0
:100060000C944E060C948C00000000002400270025
:100070002A0000000000250028002B0000000000DE
:1000800023002600290004040404040404040202DA
:100090000202020203030303030301020408102007
:1000A0004080010204081020010204081020000012
:1000B0000007000201000003040600000000000029
:1000C0000000CE019A05C70111241FBECFEFD8E072
:1000D000DEBFCDBF11E0A0E0B1E0E8EBFFE002C081
:1000E00005900D92AA31B107D9F711E0AAE1B1E06C
:1000F00001C01D92A63CB107E1F710E0C6ECD0E0CC
:1001000004C02297FE010E94CB07C23CD107C9F769
:100110000E9489050C94CF070C940000CF93DF93C5
:10012000BC018230910510F462E070E0A091C4013E
:10013000B091C501ED01E0E0F0E040E050E021C009
:10014000888199818617970769F48A819B81309706
:1001500019F09383828304C09093C5018093C401F6
:10016000FE0134C06817790738F44115510519F0BC
:100170008417950708F4AC01FE018A819B819C01DC
:10018000E9012097E9F641155105A9F1CA01861B3D
:10019000970B049708F4BA01E0E0F0E02AC08D91D3
:1001A0009C91119784179507F9F46417750781F4EA
:1001B00012968D919C911397309719F093838283B7
:1001C00004C09093C5018093C401FD0132964CC0D8
:1001D000CA01861B970BFD01E80FF91F619371930C
:1001E00002978D939C9340C0FD01828193819C0175
:1001F000D9011097A1F68091C2019091C301892B7A
:1002000041F480911301909114019093C301809364
:10021000C20140911501509116014115510541F45B
:100220004DB75EB78091110190911201481B590B97
:100230002091C2013091C301CA01821B930B861722
:10024000970780F0AB014E5F5F4F8417950750F022
:10025000420F531F5093C3014093C201F9016193B0
:10026000719302C0E0E0F0E0CF01DF91CF910895FB
:10027000CF93DF93009709F450C0EC0122971B82C3
:100280001A82A091C401B091C501109709F140E014
:1002900050E0AC17BD0708F1BB83AA83FE01219192
:1002A0003191E20FF31FAE17BF0779F48D919C9146
:1002B0001197280F391F2E5F3F4F398328831296DD
:1002C0008D919C9113979B838A834115510571F4FD
:1002D000D093C501C093C40120C012968D919C910A
:1002E0001397AD01009711F0DC01D3CFFA01D3834E
:1002F000C28321913191E20FF31FCE17DF0769F41A
:1003000088819981280F391F2E5F3F4FFA01318371
:1003100020838A819B8193838283DF91CF9108958B
:10032000FB01DC018D91019080190110D9F3990B2B
:100330000895FB01DC0101900D920020E1F7089582
:100340008130910581F46F5F7F4F01F58CE191E081
:1003500060E071E00E946105109222011092240178
:10036000109223010895892B89F46F5F7F4F71F4F8
:1003700080911C0190911D010E94380110921F0173
:1003800010921E011092210110922001089580E028
:1003900090E06FEF7FEF0E94A001089581E090E070
:1003A0006FEF7FEF0E94A00108952F923F924F922E
:1003B0005F926F927F928F929F92AF92BF92CF92F5
:1003C000DF92EF92FF921F93DF93CF93CDB7DEB70B
:1003D000A4970FB6F894DEBF0FBECDBF8091250164
:1003E000882309F0EBC067E0262E312C2C0E3D1E31
:1003F0005DE0452E512C4C0E5D1E48E7642E712C9D
:100400003FEF832E912C23E1A22EB12CAC0EBD1E0A
:1004100099E1C92ED12CCC0EDD1E8FE1E82EF12CF6
:10042000EC0EFD1ECE01019661E071E00E946105B7
:100430008CE191E0BE016F5F7F4F0E9431058981A1
:100440009A810E9438011C821B821E821D82C1017A
:1004500066E071E00E9461058CE191E0B1010E94CB
:100460000405182F8F8198850E9438011A861986F5
:100470001C861B86112329F090921B0180921A0181
:100480001EC0C20161E071E00E9461058CE191E053
:10049000B2010E940405182F8D859E850E943801A7
:1004A000188A1F861A8A198A112329F070921B0153
:1004B00060921A0104C010921B0110921A016091FF
:1004C0001A0170911B01809117010E94E20382E0E2
:1004D0000E94B504892B09F4A5CFC5016BE071E03A
:1004E0000E9461058CE191E0B5010E9431058B8984
:1004F0009C890E9438011E8A1D8A188E1F8AC60197
:1005000066E071E00E9461058CE191E0B6010E9415
:100510000405182F898D9A8D0E9438011C8E1B8E20
:100520001E8E1D8E112329F090921B0180921A01BC
:100530001EC0C70161E071E00E9461058CE191E09D
:10054000B7010E940405182F8F8D98A10E943801D1
:100550001AA219A21CA21BA2112329F070921B013E
:1005600060921A0104C010921B0110921A0160914E
:100570001A0170911B01809117010E94E20381E032
:1005800090E0909324018093230185E591E064E05D
:1005900070E00E949005609123017091240185E52F
:1005A00091E00E94BF0585E591E00E94C20560EDE3
:1005B00077E080E090E00E944F0334CF81E08093A9
:1005C0002501A4960FB6F894DEBF0FBECDBFCF9124
:1005D000DF911F91FF90EF90DF90CF90BF90AF9091
:1005E0009F908F907F906F905F904F903F902F9053
:1005F00008958091170161E00E943B0482E060E071
:100600000E943B0485E591E00E94D20508951F9267
:100610000F920FB60F9211242F933F938F939F93B6
:10062000AF93BF9380912A0190912B01A0912C014F
:10063000B0912D0130912E010196A11DB11D232FE6
:100640002D5F2D3720F02D570196A11DB11D209350
:100650002E0180932A0190932B01A0932C01B0933B
:100660002D018091260190912701A0912801B09140
:1006700029010196A11DB11D8093260190932701A8
:10068000A0932801B0932901BF91AF919F918F91C1
:100690003F912F910F900FBE0F901F9018959B01C7
:1006A000AC017FB7F8948091260190912701A09129
:1006B0002801B091290166B5A89B05C06F3F19F0CC
:1006C0000196A11DB11D7FBFBA2FA92F982F882792
:1006D000860F911DA11DB11D62E0880F991FAA1FF1
:1006E000BB1F6A95D1F7BC012DC0FFB7F89480916C
:1006F000260190912701A0912801B0912901E6B52A
:10070000A89B05C0EF3F19F00196A11DB11DFFBFC9
:10071000BA2FA92F982F88278E0F911DA11DB11DCB
:10072000E2E0880F991FAA1FBB1FEA95D1F7861B2D
:10073000970B885E9340C8F22150304040405040B3
:1007400068517C4F211531054105510571F6089519
:10075000789484B5826084BD84B5816084BD85B59C
:10076000826085BD85B5816085BDEEE6F0E0808163
:1007700081608083E1E8F0E0808182608083808115
:1007800081608083E0E8F0E0808181608083E1EB3C
:10079000F0E0808184608083E0EBF0E08081816024
:1007A0008083EAE7F0E080818460808380818260DA
:1007B00080838081816080838081806880831092C3
:1007C000C10008951F93CF93DF93182FEB0161E0D1
:1007D0000E943B04E12FF0E0E255FF4F849183300B
:1007E00051F480918000806880938000D0938900CC
:1007F000C09388003CC0843051F4809180008062B6
:1008000080938000D0938B00C0938A0030C08130E9
:1008100039F4209729F184B5806884BDC7BD27C00D
:10082000823039F42097E1F084B5806284BDC8BD80
:100830001EC0863041F48091B00080688093B00083
:10084000C093B30014C0873041F48091B00080623F
:100850008093B000C093B4000AC0C038D1051CF426
:10086000812F60E002C0812F61E00E946104DF916E
:10087000CF911F910895482F50E0CA0186569F4F8F
:10088000FC0124914A575F4FFA0184918823C1F0FB
:10089000E82FF0E0EE0FFF1FE859FF4FA591B4914C
:1008A000662341F49FB7F8948C91209582238C9312
:1008B0009FBF08959FB7F8948C91822B8C939FBF14
:1008C0000895482F50E0CA0182559F4FFC012491A2
:1008D000CA0186569F4FFC0134914A575F4FFA0177
:1008E0009491992309F440C0222331F1233021F45B
:1008F000809180008F7705C0243031F48091800092
:100900008F7D8093800018C0213019F484B58F77D3
:1009100004C0223021F484B58F7D84BD0DC0263003
:1009200021F48091B0008F7705C0273029F48091A1
:10093000B0008F7D8093B000E92FF0E0EE0FFF1F35
:10094000EE58FF4FA591B491662341F49FB7F894F8
:100950008C91309583238C939FBF08959FB7F89413
:100960008C91832B8C939FBF0895682F70E0CB01EF
:1009700082559F4FFC012491CB0186569F4FFC016D
:1009800044916A577F4FFB019491992319F420E019
:1009900030E038C0222331F1233021F480918000EF
:1009A0008F7705C0243031F4809180008F7D809353
:1009B000800018C0213019F484B58F7704C022302C
:1009C00021F484B58F7D84BD0DC0263021F4809143
:1009D000B0008F7705C0273029F48091B0008F7D5B
:1009E0008093B000892F90E0880F991F84589F4F03
:1009F000FC01A591B4918C9120E030E0842311F0AA
:100A000021E030E0C9010895DC01FB0114962D912D
:100A10003C911597848195812817390711F080E062
:100A20000895608171818D919C910E9490019C013B
:100A300080E0232B09F481E00895CF93DF93EC014C
:100A4000CB017B836A8301960E948E009983888301
:100A5000009721F41B821A821D821C82DF91CF91A4
:100A600008950F931F93CF93DF93EC018B018617AB
:100A7000970709F1FB01248135818C819D818217C3
:100A8000930750F4888199810E943801F8016481AC
:100A90007581CE010E941D052881398121153105FE
:100AA00051F0F801848195819D838C8360817181EF
:100AB000C9010E949901CE01DF91CF911F910F9141
:100AC00008950F931F93CF93DF938C01EB01611572
:100AD000710511F4C0E1D1E0FE0101900020E9F7B9
:100AE0003197EC1BFD0BD8011596FC93EE931497F0
:100AF000C801BF010E941D05F80180819181009706
:100B000019F0BE010E949901DF91CF911F910F91C1
:100B100008950E94A8030E94F9020E94D501FDCF0A
:100B200081E0809354016093310110925201109240
:100B3000530108950895DF93CF930F92CDB7DEB799
:100B4000698380915401882389F080915301803218
:100B500090F480915201E82FF0E0EE5CFE4F60834C
:100B60008F5F809352018093530105C0CE0101969F
:100B700061E00E9433060F90CF91DF9108950E94AB
:100B80009B0508958091310162E371E0409153012A
:100B900021E00E94F0051092520110925301109230
:100BA0005401089510922F011092300110925201B9
:100BB000109253010E94DD05089510925601449A47
:100BC000459AE9EBF0E080818E7F808380818D7F84
:100BD000808388E48093B80085E48093BC00089506
:100BE0001F93582F122F413210F081E03AC08091AC
:100BF00056018823E1F782E0809356018FEF8093BE
:100C0000C10110927C0140937D01ACE5B1E0FB0194
:100C100002C081918D938E2F861B8417D0F3852F70
:100C200090E0880F991F8093570185EE8093BC0058
:100C3000112321F0809156018230E1F38091C101AE
:100C40008F3F11F480E00DC08091C101803211F41A
:100C500082E007C08091C101803311F084E001C0BF
:100C600083E01F910895482F613210F081E00895CC
:100C700080915601843011F082E0089560939F01C5
:100C8000AEE7B1E0842F9C01F90102C081918D9300
:100C90008E2F841B8617D0F380E008951F920F9249
:100CA0000FB60F9211242F933F934F935F936F933F
:100CB0007F938F939F93AF93BF93EF93FF93809115
:100CC000B90090E0887F90708036910509F4DCC00F
:100CD00081369105CCF58832910509F47BC08932C3
:100CE0009105B4F48031910509F46FC0813191050B
:100CF0003CF4009709F431C1089709F039C165C087
:100D00008831910509F466C0809709F031C17DC032
:100D10008034910509F49FC08134910544F48033F7
:100D2000910509F47DC0C89709F022C184C08035BF
:100D3000910509F484C08835910509F491C088347F
:100D4000910509F015C198C08839910509F4FDC0D5
:100D500089399105ECF48837910509F495C08937F4
:100D600091054CF48836910509F48EC080379105C1
:100D700009F0FEC089C08838910509F4E6C08039C1
:100D8000910509F487C08038910509F0F1C082C04F
:100D9000803B910509F4B0C0813B91054CF4803A49
:100DA000910509F489C0883A910509F0E1C0A4C011
:100DB000803C910509F4CDC0883C910509F4C9C077
:100DC000883B910509F0D4C0ACC080915701809355
:100DD000BB00B9C090917C0180917D01981768F4A7
:100DE00090917C01E92FF0E0E45AFE4F80818093DE
:100DF000BB009F5F90937C01A6C085ED8093BC00F3
:100E00008091BC0084FDFCCFB1C080E28093C10121
:100E100085ED8093BC008091BC0084FDFCCFA6C012
:100E200080E38093C10185ED8093BC008091BC007C
:100E300084FDFCCF9BC088E38093C1018AC0809170
:100E40007C019091BB00E82FF0E0E45AFE4F9083C4
:100E50008F5F80937C0190917C0180917D0171C0B6
:100E600080917C019091BB00E82FF0E0E45AFE4FA6
:100E700090838F5F80937C0185ED8093BC0080918F
:100E8000BC0084FDFCCF72C083E0809356011092B9
:100E9000C00159C08091C001803208F056C08091D5
:100EA000C0019091BB00E82FF0E0E056FE4F908328
:100EB0008F5F8093C00147C08091C001803230F4C1
:100EC000E091C001F0E0E056FE4F108285ED809386
:100ED000BC008091BC0084FDFCCF10925601609153
:100EE000C001E0915A01F0915B0180EA91E070E06D
:100EF00009951092C0012DC084E080935601109294
:100F00009E0110929F01E0915801F09159010995BD
:100F100080919F01882329F481E080939F011092A2
:100F20007E0190919E01E92FF0E0E258FE4F808112
:100F30008093BB009F5F90939E0190919E01809152
:100F40009F01981710F485EC01C085E88093BC00E0
:100F50000FC085EC8093BC0009C01092C10185EDE3
:100F60008093BC008091BC0084FDFCCF10925601A0
:100F7000FF91EF91BF91AF919F918F917F916F9171
:100F80005F914F913F912F910F900FBE0F901F9047
:100F90001895EE0FFF1F0590F491E02D099410E0D5
:100FA000C6ECD0E004C0FE010E94CB072296C83CEC
:080FB000D107C9F7F894FFCF47
:100FB80000534C4F5700464153540053544F500070
:0A0FC800002000C60100000B00002D
:00000001FF
