:100000000C9434000C9451000C9451000C94510049
:100010000C9451000C9451000C9451000C9451001C
:100020000C9451000C9451000C9451000C9451000C
:100030000C9451000C9451000C9451000C945100FC
:100040000C945F000C9451000C9451000C945100DE
:100050000C9451000C9451000C9451000C945100DC
:100060000C9451000C94510011241FBECFEFD8E026
:10007000DEBFCDBF11E0A0E0B1E0E6ECF1E002C0F0
:1000800005900D92A030B107D9F711E0A0E0B1E0E2
:1000900001C01D92AA30B107E1F70E9458000C94EC
:1000A000E1000C940000089581E080930001089520
:1000B0000E94A7000E9453000E945400FDCF1F928F
:1000C0000F920FB60F9211242F933F938F939F930C
:1000D000AF93BF938091050190910601A091070114
:1000E000B0910801309109010196A11DB11D232F86
:1000F0002D5F2D3720F02D570196A11DB11D2093A6
:1001000009018093050190930601A0930701B09324
:1001100008018091010190910201A0910301B09129
:1001200004010196A11DB11D80930101909302016C
:10013000A0930301B0930401BF91AF919F918F9160
:100140003F912F910F900FBE0F901F9018957894AC
:1001500084B5826084BD84B5816084BD85B58260CC
:1001600085BD85B5816085BDEEE6F0E0808181606A
:100170008083E1E8F0E0808182608083808181601B
:100180008083E0E8F0E0808181608083E1EBF0E053
:10019000808184608083E0EBF0E0808181608083F7
:1001A000EAE7F0E0808184608083808182608083E0
:1001B0008081816080838081806880831092C1000B
:0601C0000895F894FFCF42
:00000001FF
